:020000040001F9
:1000000000800004090101004B0101004D010100C5
:100010004F010100510101005301010000000000E7
:100020000000000000000000000000005501010079
:100030005701010000000000590101005B010100AF
:100040005D0101006101010065010100690101001C
:100050006D010100710101007501010079010100CC
:100060007D0101008101010085010100890101007C
:100070008D0101009101010095010100990101002C
:100080009D010100A1010100A5010100A9010100DC
:10009000AD010100B1010100B5010100B90101008C
:1000A000BD010100C1010100C5010100C90101003C
:1000B000CD010100D1010100D5010100D9010100EC
:1000C000DD010100E1010100E5010100E90101009C
:1000D000ED010100F1010100F5010100F90101004C
:1000E000DFF80CD000F03AF9004800472D1C010061
:1000F0000080000400ED00E000080040040800401B
:1001000008080040FF0F240C3D4E002401253068F4
:1001100001680909328A0A40738A934200D12C4649
:10012000706803682B40634000D10AE0B068026841
:10013000002A03D0F06801688D461047AD4630BFF5
:10014000FDE73048804730480047FEE7FEE7FEE71E
:10015000FEE7FEE7FEE7FEE7FEE7FEE72B48004787
:100160002B4800472B4800472B4800472B480047A7
:100170002B4800472B4800472B4800472B48004797
:100180002B4800472B4800472B4800472B48004787
:100190002B4800472B4800472B4800472B48004777
:1001A0002B4800472B4800472B4800472B48004767
:1001B0002B4800472B4800472B4800472B48004757
:1001C0002B4800472B4800472B4800472B48004747
:1001D0002B4800472B4800472B4800472B48004737
:1001E0002B4800472B4800472B4800472B48004727
:1001F0002B4800472B4800472B480047FEE70000EC
:10020000F4000100BD160100E1000100FD01010044
:10021000FD010100FD010100FD010100FD010100E2
:10022000FD010100FD010100FD010100FD010100D2
:10023000FD010100FD010100FD010100FD010100C2
:10024000FD010100E10D0100690E0100F10E010048
:10025000790F010001100100891001001111010046
:1002600099110100FD010100FD010100FD010100E6
:10027000FD010100FD010100FD010100FD01010082
:10028000FD010100FD010100FD010100FD01010072
:10029000FD010100FD010100FD010100FD01010062
:1002A000FD010100FD010100FD0101002DE9F05FEC
:1002B0000546002092469B468846064681464024D5
:1002C0001BE0284641464746224600F036F8534692
:1002D0005A46C01A914110D311461846224600F0E2
:1002E0001DF82D1A67EB01084F4622460120002118
:1002F00000F014F817EB00094E41201EA4F1010490
:10030000DFDC484631462A464346BDE8F09F421CA2
:1003100010F8011B0029FBD1801A7047202A04DB4A
:10032000203A00FA02F1002070479140C2F1200308
:1003300020FA03F3194390407047202A04DB203A47
:1003400021FA02F00021704721FA02F3D040C2F1F5
:10035000200291400843194670470000064C074DA3
:1003600006E0E06840F0010394E807009847103485
:10037000AC42F6D3FFF7B8FE841E0100A41E0100B4
:1003800010B5042001F042F80B4800F0A5F80B4826
:1003900001F046F8094800F0CDFA084800F0F4FAF8
:1003A00000220121202000F0A5FA054800F094F871
:1003B00002480449086010BD00111000006CDC0206
:1003C000001410000000002070B50C4801F01AF96C
:1003D0000C2000F05BF905462B4605224FF4E13175
:1003E000074800F073FB044604B904E0362205A177
:1003F00008A001F0D9FB204670BD00000B000100F1
:10040000006008402E2E2F2E2E2F626F6172642EF8
:10041000630000006B5374617475735F537563639D
:10042000657373203D3D20726573756C7400000028
:100430002DE9F05F0D20010A022905D20122824038
:10044000224B43F8212003E001228240204B5A61D5
:1004500000BF40F281142346002211461D4800F0DF
:10046000C4FF25462346012200211A4800F0BDFFA3
:100470004FF4D076334618220021164800F0B5FF1D
:100480004FF4C8773B461D220021124800F0ADFF13
:10049000B8463B461F2200210E4800F0A6FFB94691
:1004A0003B46042200210B4800F09FFFBA463B4622
:1004B0000A220121074800F098FFBB463B4609226B
:1004C0000121044800F091FFBDE8F09F20020040A8
:1004D000000004400010004070B500240D4D0023C2
:1004E00013E003EB4306B600F040C1B258B1C0F3CD
:1004F0000326761EF2B21C2902D1074E326203E0B7
:1005000045F8212000E001245B1C022B01D8002CBF
:10051000E7D070BD8002004000000440010A0229BB
:1005200005D201228240044B43F8212003E001223E
:100530008240024B5A617047200200400000044094
:1005400010B500BF0849096A01F003010C4614B157
:10055000012C05D102E000F00BF803E0034801E0B4
:10056000002000BF00BF10BD00000440001BB7000A
:1005700000B51D48006830B91B48001F006810B95D
:1005800000F05AF900BD1848006838B91648001F35
:100590000068012802D100F029F8F3E7124800684A
:1005A00038B91148001F0068022802D100F082F912
:1005B000E8E70D48006838B90B48001F00680328B9
:1005C00002D100F047F9DDE707480068022802D1B0
:1005D00000F06AF9D6E704480068032802D100F069
:1005E0005FF9CFE70020CDE784020040002070478C
:1005F00000B50E48006810B9FFF7BAFF00BD0B4800
:100600000068012802D100F04FF9F7E707480068B9
:10061000022802D100F010F9F0E70448006803282E
:1006200002D100F017F9E9E70020E7E7E80200400F
:1006300010B50446144850F8240010B900F0FCF836
:1006400010BD114850F82400012802D100F002F931
:10065000F6E70D4850F82400022802D100F024F9F2
:10066000EEE7094850F82400032802D100F012F9FF
:10067000E6E7054850F82400042803D1082000F0DC
:1006800005F8DDE70020DBE7B00200402DE9F0418E
:100690000546142D75D2DFE805F00A0E171BC71F9B
:1006A000233C405D979B9FA4A9AEB3B8BDC2FFF7A2
:1006B0005FFF0446BAE0FFF75BFF5E490968C9B215
:1006C000491CB0FBF1F4B1E000F0C4F80446ADE021
:1006D00000F0B2F80446A9E000F0E6F80446A5E010
:1006E0005448D838006810B900F0B4F808E0514810
:1006F000D8380068012802D100F0D6F800E00020C8
:1007000004464C4818300068C0B2401CB4FBF0F4FA
:100710008CE000F0CFF8044688E0464820300068BE
:10072000C0B2FF2813D1FFF763FF4FF48071A0FB25
:10073000017001463F4820300068C0F3072000F5F3
:100740008076324600233846FFF7B0FD00E00020F7
:1007500004466BE037489438006810B900F06CF834
:1007600029E0344894380068012802D100F072F87A
:1007700021E0304894380068022803D100F094F852
:1007800019E051E02B4894380068032802D100F0AA
:1007900081F810E0274894380068042802D1FFF758
:1007A000E7FE08E0234894380068052802D100F0ED
:1007B00081F800E0002004461E4828300068C0B2DE
:1007C000401CB4FBF0F431E0FFF7BAFE04462DE024
:1007D00000F060F8044629E00020FFF729FF0446F6
:1007E00024E00120FFF724FF04461FE00220FFF76A
:1007F0001FFF04461AE00320FFF71AFF044615E026
:100800000420FFF715FF044610E00520FFF710FF56
:1008100004460BE00620FFF70BFF044606E0072026
:10082000FFF706FF044601E0002400BF00BF20469A
:10083000BDE8F081800300400448006800F010002B
:1008400008B1002070470248FCE700001006004095
:10085000001BB7000B48006800F0100008B1002032
:1008600070470948006800F0804008B90020F7E7A9
:100870000548006800F4804008B10448F0E70448E7
:10088000EEE70000100600400005004000D8B80563
:10089000006CDC020148006870470000080000207E
:1008A0004FF40040704700000148006870470000A6
:1008B000040000200C48006800F4801008B10020FB
:1008C00070470A48006800F01F00401C41000748BC
:1008D0000068C0F34410064B1A5C4CF25030504391
:1008E000B0FBF1F0ECE70000100600400805004006
:1008F000601E010010B51346074A1BB14FF00054AB
:1009000042F8204021B94FF0804442F8204002E0F4
:100910004C1E42F8204010BD00030040044A1268FB
:1009200022F4704141EA0032014B1A607047000026
:100930000004004010B504460F48844203D800204C
:10094000FFF7ECFF17E00D48844203D80120FFF7C2
:10095000E5FF10E00A48844203D80220FFF7DEFFDB
:1009600009E00848844203D80320FFF7D7FF02E0DC
:100970000420FFF7D3FF10BD001BB70080C3C901DF
:100980000087930340FF100570B504462148844258
:1009900007D08000844204D04000844201D001206E
:1009A00070BD042000F028FD1B480068C0F30065FE
:1009B0001848844225D9C000844211D117480068E4
:1009C0001749084040F4804040F000404FF08071EB
:1009D00001EA0561084340F080400F49086016E0D5
:1009E0000E48143000680E49084040F000404FF0B7
:1009F000807101EA0561084340F0804006490860C3
:100A000005E00548006820F08040034908600020A8
:100A1000C6E70000001BB7000005004030040001DD
:100A2000FF3FFF002DE9F04F07468C46914600201E
:100A30003946834601F801BBB9F1000F1ED0DCF83E
:100A4000004034B94FF0300B81F800B0401CBDE8D5
:100A5000F08F10E094FBF3F808FB1345002D05DA46
:100A60002A466FEA020B0BF1310500E030354446AF
:100A700001F8015B401C002CECD125E0DCF80060A3
:100A80002EB94FF0300B81F800B0401CDFE719E0C1
:100A9000B6FBF3FA0AFB13620A2A01D230320DE0E8
:100AA000A2F10A0BDDF824E0BEF1000F02D04FF0F6
:100AB000410E01E04FF0610E0BEB0E02564601F8BD
:100AC000012B401C002EE3D100BFC0E7FEB5054658
:100AD0000E4614461F461048007808B10120FEBD9E
:100AE0000D480470052C11D14560684600F0FAFDF0
:100AF000009609493A464868694600F031FE0748C1
:100B00000549886006490448C16001E00420E6E721
:100B100000BF0020E3E700004C000020ED1A0100B8
:100B2000BD1801000FB438B50948007820B94FF05E
:100B3000FF3038BC5DF814FB05A800900548009A0A
:100B4000049900F009F80446002000902046F0E7E0
:100B50004C000020BD0D01002DE9F74F92B0064674
:100B60008B464FF00008C14600200790039001908B
:100B70005D4606E1252C05D02046B0470798401C6D
:100B80000790FDE04FF0010A00200690089012E067
:100B9000681C05460478302C0ADB392C08DCA4F1EB
:100BA0003000069901EB810100EB4100069002E064
:100BB0006D1E0120089008980028E9D006200590B5
:100BC000681C054600782E281AD100200590089050
:100BD00012E0681C05460478302C0ADB392C08DC4E
:100BE000A4F13000059901EB810100EB4100059073
:100BF00002E06D1E0120089008980028E9D000E06E
:100C00006D1E681C05460478642C11D0692C0FD029
:100C1000662C0DD0462C0BD0782C09D0582C07D040
:100C20006F2C05D0622C03D0702C01D0752C77D19D
:100C3000642C01D0692C11D114980068029014988A
:100C4000001D14900A23012202A909A8CDF800A0D2
:100C5000FFF7E8FE814609A800EB0908582C01D0EF
:100C6000782C15D1782C01D14FF0000A1498006827
:100C700001901498001D14901023002201A909A8C6
:100C8000CDF800A0FFF7CEFE814609A800EB0908C9
:100C90006F2C05D0622C03D0702C01D0752C28D17C
:100CA0001498006801901498001D1490622C09D0CB
:100CB0006F2C04D0702C08D0752C0CD108E00820C3
:100CC000039009E00220039006E01020039003E067
:100CD0000A20039000E000BF00BFCDF800A0002272
:100CE00001A909A8039BFFF79DFE814609A800EB17
:100CF000090807AB009649462020069A00F049F8FB
:100D0000B8F1000F3BD005E018F80109B04707988B
:100D1000401C079098F800000028F5D12FE0FFE76D
:100D2000632C0BD1149810F8041B1490C8B20490D3
:100D30000498B0470798401C079020E0732C19D105
:100D4000149880C81490D7B13846FFF7E0FA81466E
:100D500007AB009649462020069A00F01AF805E0F5
:100D600017F8010BB0470798401C07903878002807
:100D7000F6D104E02046B0470798401C079000BF1A
:100D80006D1C2878041E7FF4F5AE079815B0BDE8F9
:100D9000F08F2DE9F04780460D4616461C46DDF8DB
:100DA00020902F4605E04046C8472068401C206040
:100DB0007F1CB742F7DBBDE8F087000001B50748AC
:100DC000007810B94FF0FF3008BD0449486801228F
:100DD0008B68694698470120F6E700004C00002028
:100DE00010B50848006800B104E0A42206A116A0CE
:100DF00000F0DAFE1A4B19681A4B1868014B1A6892
:100E0000904710BD0C0000202E2E2F2E2E2F2E2EA0
:100E10002F2E2E2F2E2E2F2E2E2F2E2E2F64657638
:100E2000696365732F4C504335343131342F64720C
:100E300069766572732F66736C5F666C6578636F35
:100E40006D6D2E6300000000735F666C6578636FE4
:100E50006D6D49727148616E646C65725B305D00E6
:100E60002C0000202C1E010010B50848406800B17D
:100E700004E0AC2206A116A000F096FE1A4B5968B9
:100E80001A4B5868014B5A68904710BD0C0000205F
:100E90002E2E2F2E2E2F2E2E2F2E2E2F2E2E2F2E6D
:100EA0002E2F2E2E2F646576696365732F4C504369
:100EB00035343131342F647269766572732F6673FD
:100EC0006C5F666C6578636F6D6D2E63000000006B
:100ED000735F666C6578636F6D6D49727148616EA2
:100EE000646C65725B315D002C0000202C1E0100DB
:100EF00010B50848806800B104E0B42206A116A02D
:100F000000F052FE1A4B99681A4B9868014B9A6888
:100F1000904710BD0C0000202E2E2F2E2E2F2E2E8F
:100F20002F2E2E2F2E2E2F2E2E2F2E2E2F64657627
:100F3000696365732F4C504335343131342F6472FB
:100F400069766572732F66736C5F666C6578636F24
:100F50006D6D2E6300000000735F666C6578636FD3
:100F60006D6D49727148616E646C65725B325D00D3
:100F70002C0000202C1E010010B50848C06800B1EC
:100F800004E0BC2206A116A000F00EFE1A4BD968A0
:100F90001A4BD868014BDA68904710BD0C0000204E
:100FA0002E2E2F2E2E2F2E2E2F2E2E2F2E2E2F2E5C
:100FB0002E2F2E2E2F646576696365732F4C504358
:100FC00035343131342F647269766572732F6673EC
:100FD0006C5F666C6578636F6D6D2E63000000005A
:100FE000735F666C6578636F6D6D49727148616E91
:100FF000646C65725B335D002C0000202C1E0100C8
:1010000010B50848006900B104E0C42206A116A08A
:1010100000F0CAFD1A4B19691A4B1869014B1A697D
:10102000904710BD0C0000202E2E2F2E2E2F2E2E7E
:101030002F2E2E2F2E2E2F2E2E2F2E2E2F64657616
:10104000696365732F4C504335343131342F6472EA
:1010500069766572732F66736C5F666C6578636F13
:101060006D6D2E6300000000735F666C6578636FC2
:101070006D6D49727148616E646C65725B345D00C0
:101080002C0000202C1E010010B50848406900B15A
:1010900004E0CD2206A116A000F086FD1A4B596986
:1010A0001A4B5869014B5A69904710BD0C0000203B
:1010B0002E2E2F2E2E2F2E2E2F2E2E2F2E2E2F2E4B
:1010C0002E2F2E2E2F646576696365732F4C504347
:1010D00035343131342F647269766572732F6673DB
:1010E0006C5F666C6578636F6D6D2E630000000049
:1010F000735F666C6578636F6D6D49727148616E80
:10110000646C65725B355D002C0000202C1E0100B4
:1011100010B50848806900B104E0D52206A116A0E8
:1011200000F042FD1A4B99691A4B9869014B9A6974
:10113000904710BD0C0000202E2E2F2E2E2F2E2E6D
:101140002F2E2E2F2E2E2F2E2E2F2E2E2F64657605
:10115000696365732F4C504335343131342F6472D9
:1011600069766572732F66736C5F666C6578636F02
:101170006D6D2E6300000000735F666C6578636FB1
:101180006D6D49727148616E646C65725B365D00AD
:101190002C0000202C1E010010B50848C06900B1C9
:1011A00004E0DD2206A116A000F0FEFC1A4BD9696E
:1011B0001A4BD869014BDA69904710BD0C0000202A
:1011C0002E2E2F2E2E2F2E2E2F2E2E2F2E2E2F2E3A
:1011D0002E2F2E2E2F646576696365732F4C504336
:1011E00035343131342F647269766572732F6673CA
:1011F0006C5F666C6578636F6D6D2E630000000038
:10120000735F666C6578636F6D6D49727148616E6E
:10121000646C65725B375D002C0000202C1E0100A1
:1012200070B50546002407E0074850F82400A8429E
:1012300001D1204670BD641C082CF5DB612203A19E
:1012400012A000F0B1FC00002C1E01002E2E2F2E4B
:101250002E2F2E2E2F2E2E2F2E2E2F2E2E2F2E2EA9
:101260002F646576696365732F4C50433534313193
:10127000342F647269766572732F66736C5F666C67
:101280006578636F6D6D2E630000000066616C739E
:101290006500000070B505460E462846FFF7C0FF02
:1012A0000446002C01DA042070BD0B4931F814000B
:1012B000010A022905D201228240084B43F821206D
:1012C00003E001228240064B5A6100BF00223146F2
:1012D000284600F024F8E7E74C1E010020020040F9
:1012E0000000044010B5024609B9012010BD0129D3
:1012F0000CDB04290ADCD2F8F80FCB1C01249C403B
:10130000204008B10120F1E70020EFE7052904D1D2
:10131000D2F8F80FC0F3C010E8E70020E6E770B598
:1013200004460D46164629462046FFF7DBFF08B95E
:10133000032070BDD4F8F80F00F0080038B1D4F8DD
:10134000F80F00F00700A84201D00120F1E726B114
:1013500045F00800C4F8F80F01E0C4F8F85F002079
:10136000E7E700F50A5343F82120704730B51C78B1
:101370005CB900F5005454F8214001259540AC4378
:1013800000F5005545F8214019E05C7834B9012496
:10139000944000F50A5545F8214005E001249440A9
:1013A00000F5085545F8214000F5005454F8215047
:1013B000012494402C4300F5005545F8214030BDF0
:1013C000024602F5045050F82100704700F508531A
:1013D00043F82120704700F50C5343F82120704753
:1013E00010B500EB4114A35410BD10B500EBC114AF
:1013F00044F8223010BD000001218140024A030A56
:1014000042F823107047000030060040012181405F
:10141000024A030A42F823107047000030060040D9
:1014200010B504463F48404908600B21012000F0F8
:101430008DF80B21022000F089F80B21042000F028
:1014400085F83A48844208D80621002000F07EF84A
:101450000621032000F07AF863E03548844208D87A
:101460000721002000F072F80721032000F06EF839
:1014700057E03048844208D80821002000F066F880
:101480000821032000F062F84BE02B48844208D882
:101490000921002000F05AF80921032000F056F835
:1014A0003FE02648844208D80A21002000F04EF888
:1014B0000A21032000F04AF833E02148844208D88A
:1014C0000B21002000F042F80B21032000F03EF831
:1014D00027E01C48844208D80B21002000F036F891
:1014E0000B21032000F032F81BE0174884420CD88F
:1014F0000C21002000F02AF80C21022000F026F830
:101500000C21032000F022F80BE00D21002000F058
:101510001DF80D21022000F019F80D21032000F024
:1015200015F810BD0400003830060040001BB7005D
:1015300000366E0100512502006CDC020087930327
:1015400000A24A0400BD010500D8B80510B501F09D
:101550000F02024C44F8202010BD000000000240A1
:101560002DE9F04105462E0CAFB2012000FA07F438
:10157000202F00D204E05D220DA11CA000F014FB7E
:10158000022E08D31D48846000BF1C48006820401C
:10159000A042FAD00AE01A4840F8264000BF184896
:1015A000403850F826002040A042F8D0BDE8F08135
:1015B0002E2E2F2E2E2F2E2E2F2E2E2F2E2E2F2E46
:1015C0002E2F2E2E2F646576696365732F4C504342
:1015D00035343131342F647269766572732F6673D6
:1015E0006C5F72657365742E6300000062697450ED
:1015F0006F73203C2033327500000000000004406F
:101600004001004010B50446204600F005F8204691
:10161000FFF7A6FF10BD00002DE9F04105462E0C96
:10162000AFB2012000FA07F4202F00D204E03C22E0
:101630000DA11CA000F0B8FA022E08D31D4844608A
:1016400000BF1C48006820400028FAD00AE01A4871
:1016500040F8264000BF1848203850F826002040A7
:101660000028F8D0BDE8F0812E2E2F2E2E2F2E2E02
:101670002F2E2E2F2E2E2F2E2E2F2E2E2F646576D0
:10168000696365732F4C504335343131342F6472A4
:1016900069766572732F66736C5F72657365742EFD
:1016A00063000000626974506F73203C2033327510
:1016B00000000000000004402001004006480068CF
:1016C00040F4700004490860044803498039086008
:1016D000102003490860704788ED00E00000010019
:1016E0002002004010B5044604B104E0D32209A151
:1016F00017A000F059FA4FF4E1302060002020716B
:1017000060710120A0710020E07120726072A072EF
:10171000E07210BD2E2E2F2E2E2F2E2E2F2E2E2F7E
:101720002E2E2F2E2E2F2E2E2F6465766963657335
:101730002F4C504335343131342F647269766572E1
:10174000732F66736C5F75736172742E6300000093
:101750004E554C4C20213D20636F6E66696700003A
:101760002DE9F04104460D46174614B10DB107B1FD
:1017700004E0932233A142A000F016FA0CB105B1A7
:1017800017B90420BDE8F08101212046FFF782FD52
:1017900006460EB13046F5E73A462046296800F085
:1017A0001BF906460EB13046ECE7687AB8B104F58D
:1017B0006064206840F001102060A06820F4706030
:1017C000A060A068A97A4FF4706202EA0121084380
:1017D000A060A06840F00100A060A4F56064287AD1
:1017E000B8B104F56064206840F002102060A06881
:1017F00020F47020A060A068E97A4FF4702202EA19
:1018000001410843A060A06840F00200A060A4F578
:1018100060642879302101EA00106979402202EAE7
:1018200081110843A9790C2202EA81010843E97970
:101830004FF4004202EAC1310843401C20600020FE
:10184000A0E700002E2E2F2E2E2F2E2E2F2E2E2FE5
:101850002E2E2F2E2E2F2E2E2F6465766963657304
:101860002F4C504335343131342F647269766572B0
:10187000732F66736C5F75736172742E6300000062
:101880002128284E554C4C203D3D2062617365292E
:10189000207C7C20284E554C4C203D3D20636F6EB3
:1018A00066696729207C7C202830203D3D207372AA
:1018B00063436C6F636B5F487A2929002DE9F0411F
:1018C00004460D4617460CB105B105E04FF497727A
:1018D00029A138A000F068F904B115B90420BDE8C9
:1018E000F081D4F8000E00F0020008B90120F6E7FC
:1018F0003EE000BFD4F8040E00F040000028F9D00C
:10190000A66806F4005030B1A06840F40050A06012
:1019100041F24F60E3E706F4804030B1A06840F444
:101920008040A06041F25060D9E706F4004030B139
:10193000A06840F40040A06041F24E60CFE7D4F8C8
:10194000040E00F0020070B1D4F8000E40F4003034
:10195000C4F8000ED4F8040E40F00200C4F8040EDF
:1019600041F24D60BBE7D4F8300E28706D1C7F1E2D
:10197000002FBED10020B2E72E2E2F2E2E2F2E2E7E
:101980002F2E2E2F2E2E2F2E2E2F2E2E2F646576BD
:10199000696365732F4C504335343131342F647291
:1019A00069766572732F66736C5F75736172742EDE
:1019B000630000002128284E554C4C203D3D2062FC
:1019C00061736529207C7C20284E554C4C203D3D80
:1019D00020646174612929002DE9FC5F06460C46EC
:1019E00017464FF0FF3001904FF00F0A834616B1B3
:1019F0000CB107B104E0E7221DA12CA000F0D4F83F
:101A00000EB104B117B90420BDE8FC9F554621E092
:101A1000681C6043B7FBF0F0A0F10108B8F5803F07
:101A200000D316E0681C08F101014843B7FBF0F948
:101A30004C4502D2A9EB040001E0A4EB09000090A0
:101A4000DDE90001884203D200980190AA46C3460E
:101A500000BF6D1E082DDBD2BBF5803F02D341F2E3
:101A60005160D1E7C6F828A0C6F820B00020CBE727
:101A70002E2E2F2E2E2F2E2E2F2E2E2F2E2E2F2E81
:101A80002E2F2E2E2F646576696365732F4C50437D
:101A900035343131342F647269766572732F667311
:101AA0006C5F75736172742E630000002128284EEC
:101AB000554C4C203D3D206261736529207C7C2083
:101AC0002830203D3D2062617564726174655F421B
:101AD000707329207C7C202830203D3D2073726368
:101AE000436C6F636B5F487A2929000070B5044628
:101AF0000D4616460CB105B105E04FF4887212A1EF
:101B000020A000F051F804B105B970BDD4F8000E62
:101B100000F0010000B9F8E70BE000BFD4F8040EB4
:101B200000F020000028F9D02878C4F8200E6D1CA1
:101B3000761E002EF1D100BFA06800F0080000283A
:101B4000FAD000BFE1E700002E2E2F2E2E2F2E2ED2
:101B50002F2E2E2F2E2E2F2E2E2F2E2E2F646576EB
:101B6000696365732F4C504335343131342F6472BF
:101B700069766572732F66736C5F75736172742E0C
:101B8000630000002128284E554C4C203D3D20622A
:101B900061736529207C7C20284E554C4C203D3DAE
:101BA000206461746129290004460D4616463346B7
:101BB0002A46214602A0FEF7B5FF00BF00BEFDE7A2
:101BC000415353455254204552524F522022202512
:101BD0007320223A2066696C652022257322204CEE
:101BE000696E652022256422200A000002E008C8F0
:101BF000121F08C1002AFAD170477047002001E087
:101C000001C1121F002AFBD17047000008B5002057
:101C10000090009003E000BF0098401C0090024933
:101C200000988842F7D308BD80841E0008B50024C0
:101C30005648006800904FF48670FEF74DFC0E2069
:101C4000FEF76CFC0F20FEF769FCFEF7F1FBFEF7D8
:101C500097FBFEF7B9FB4EA0FEF764FF53A0FEF71B
:101C600061FF6B460A2201215A48FFF77FFB0123DF
:101C70000A2219465748FFF7B3FB6B461D22002185
:101C80005448FFF773FB01231D2200215148FFF741
:101C9000A7FB6B46092201214E48FFF767FB012392
:101CA000092219464B48FFF79BFB4FF4C062012104
:101CB0004848FFF756FB4FF4C06201214548FFF743
:101CC00085FB4FF4007201214248FFF74AFB4FF4B5
:101CD000007201213F48FFF779FB4FF4C0620121F8
:101CE0003C48FFF778FB4FF4C06201213948FFF709
:101CF00072FB4FF4806201213648FFF76CFB4FF412
:101D0000806201213348FFF766FB4FF0005200214B
:101D10003048FFF760FB4FF0005200212D48FFF7DD
:101D20005AFB2C4800214FF6FF7200F5025343F88E
:101D3000212000BF4A1E00F5065343F8212000BFB2
:101D4000FFF73EFB0446214623A0FEF7EBFE2148A9
:101D5000002100F5065252F821201446214625A004
:101D6000FEF7E0FE10E000211A48FFF729FB0446C9
:101D7000214627A0FEF7D6FE4FF400720121154838
:101D8000FFF729FBFFF742FFEDE70000801E01008F
:101D90000D0A204750494F204472697665722065CC
:101DA00078616D706C650D0A000000000D0A20540A
:101DB0006865204C45442069732074616B696E67C7
:101DC000207475726E7320746F207368696E652E4F
:101DD0000D0A000000C008400D0A205374616E64B3
:101DE00061726420706F727420726561643A20259C
:101DF000780D0A000D0A204D61736B656420706FC9
:101E0000727420726561643A2025780D0A00000022
:101E10000D0A20506F72742073746174653A202526
:101E2000780D0A000E0F10111213141500600840EF
:101E300000700840008008400090084000A0084062
:101E40000060094000700940008009400B010C014E
:101E50000D010E010F01100111011201000000001F
:101E600000080C0F1214181A1C1E202224262829E0
:101E70002A2C2D2E30313234353638393A3B3C3D20
:101E800001000000A41E0100000000200C00000062
:101E9000EC1B0100B01E01000C00002050000000EF
:101EA000FC1B0100001BB700000000000000000048
:04000005000100E115
:00000001FF
